{
  "_format": "hh-sol-artifact-1",
  "contractName": "TicketNFT",
  "sourceName": "contracts/TicketNFT.sol",
  "abi": [
    {
      "inputs": [
        {
          "internalType": "address",
          "name": "initialOwner",
          "type": "address"
        }
      ],
      "stateMutability": "nonpayable",
      "type": "constructor"
    },
    {
      "anonymous": false,
      "inputs": [
        {
          "indexed": true,
          "internalType": "address",
          "name": "owner",
          "type": "address"
        },
        {
          "indexed": true,
          "internalType": "address",
          "name": "approved",
          "type": "address"
        },
        {
          "indexed": true,
          "internalType": "uint256",
          "name": "tokenId",
          "type": "uint256"
        }
      ],
      "name": "Approval",
      "type": "event"
    },
    {
      "anonymous": false,
      "inputs": [
        {
          "indexed": true,
          "internalType": "address",
          "name": "owner",
          "type": "address"
        },
        {
          "indexed": true,
          "internalType": "address",
          "name": "operator",
          "type": "address"
        },
        {
          "indexed": false,
          "internalType": "bool",
          "name": "approved",
          "type": "bool"
        }
      ],
      "name": "ApprovalForAll",
      "type": "event"
    },
    {
      "anonymous": false,
      "inputs": [
        {
          "indexed": false,
          "internalType": "uint256",
          "name": "_fromTokenId",
          "type": "uint256"
        },
        {
          "indexed": false,
          "internalType": "uint256",
          "name": "_toTokenId",
          "type": "uint256"
        }
      ],
      "name": "BatchMetadataUpdate",
      "type": "event"
    },
    {
      "anonymous": false,
      "inputs": [
        {
          "indexed": false,
          "internalType": "uint256",
          "name": "_tokenId",
          "type": "uint256"
        }
      ],
      "name": "MetadataUpdate",
      "type": "event"
    },
    {
      "anonymous": false,
      "inputs": [
        {
          "indexed": true,
          "internalType": "address",
          "name": "previousOwner",
          "type": "address"
        },
        {
          "indexed": true,
          "internalType": "address",
          "name": "newOwner",
          "type": "address"
        }
      ],
      "name": "OwnershipTransferred",
      "type": "event"
    },
    {
      "anonymous": false,
      "inputs": [
        {
          "indexed": true,
          "internalType": "uint256",
          "name": "tokenId",
          "type": "uint256"
        },
        {
          "indexed": true,
          "internalType": "address",
          "name": "to",
          "type": "address"
        },
        {
          "indexed": false,
          "internalType": "string",
          "name": "tokenURI",
          "type": "string"
        }
      ],
      "name": "TicketMinted",
      "type": "event"
    },
    {
      "anonymous": false,
      "inputs": [
        {
          "indexed": true,
          "internalType": "address",
          "name": "from",
          "type": "address"
        },
        {
          "indexed": true,
          "internalType": "address",
          "name": "to",
          "type": "address"
        },
        {
          "indexed": true,
          "internalType": "uint256",
          "name": "tokenId",
          "type": "uint256"
        }
      ],
      "name": "Transfer",
      "type": "event"
    },
    {
      "inputs": [
        {
          "internalType": "address",
          "name": "to",
          "type": "address"
        },
        {
          "internalType": "uint256",
          "name": "tokenId",
          "type": "uint256"
        }
      ],
      "name": "approve",
      "outputs": [],
      "stateMutability": "nonpayable",
      "type": "function"
    },
    {
      "inputs": [
        {
          "internalType": "address",
          "name": "owner",
          "type": "address"
        }
      ],
      "name": "balanceOf",
      "outputs": [
        {
          "internalType": "uint256",
          "name": "",
          "type": "uint256"
        }
      ],
      "stateMutability": "view",
      "type": "function"
    },
    {
      "inputs": [
        {
          "internalType": "uint256",
          "name": "tokenId",
          "type": "uint256"
        }
      ],
      "name": "getApproved",
      "outputs": [
        {
          "internalType": "address",
          "name": "",
          "type": "address"
        }
      ],
      "stateMutability": "view",
      "type": "function"
    },
    {
      "inputs": [],
      "name": "getCurrentTokenId",
      "outputs": [
        {
          "internalType": "uint256",
          "name": "",
          "type": "uint256"
        }
      ],
      "stateMutability": "view",
      "type": "function"
    },
    {
      "inputs": [
        {
          "internalType": "address",
          "name": "owner",
          "type": "address"
        },
        {
          "internalType": "address",
          "name": "operator",
          "type": "address"
        }
      ],
      "name": "isApprovedForAll",
      "outputs": [
        {
          "internalType": "bool",
          "name": "",
          "type": "bool"
        }
      ],
      "stateMutability": "view",
      "type": "function"
    },
    {
      "inputs": [
        {
          "internalType": "address",
          "name": "to",
          "type": "address"
        },
        {
          "internalType": "string",
          "name": "uri",
          "type": "string"
        }
      ],
      "name": "mintTicket",
      "outputs": [
        {
          "internalType": "uint256",
          "name": "",
          "type": "uint256"
        }
      ],
      "stateMutability": "nonpayable",
      "type": "function"
    },
    {
      "inputs": [],
      "name": "name",
      "outputs": [
        {
          "internalType": "string",
          "name": "",
          "type": "string"
        }
      ],
      "stateMutability": "view",
      "type": "function"
    },
    {
      "inputs": [],
      "name": "owner",
      "outputs": [
        {
          "internalType": "address",
          "name": "",
          "type": "address"
        }
      ],
      "stateMutability": "view",
      "type": "function"
    },
    {
      "inputs": [
        {
          "internalType": "uint256",
          "name": "tokenId",
          "type": "uint256"
        }
      ],
      "name": "ownerOf",
      "outputs": [
        {
          "internalType": "address",
          "name": "",
          "type": "address"
        }
      ],
      "stateMutability": "view",
      "type": "function"
    },
    {
      "inputs": [],
      "name": "renounceOwnership",
      "outputs": [],
      "stateMutability": "nonpayable",
      "type": "function"
    },
    {
      "inputs": [
        {
          "internalType": "address",
          "name": "from",
          "type": "address"
        },
        {
          "internalType": "address",
          "name": "to",
          "type": "address"
        },
        {
          "internalType": "uint256",
          "name": "tokenId",
          "type": "uint256"
        }
      ],
      "name": "safeTransferFrom",
      "outputs": [],
      "stateMutability": "nonpayable",
      "type": "function"
    },
    {
      "inputs": [
        {
          "internalType": "address",
          "name": "from",
          "type": "address"
        },
        {
          "internalType": "address",
          "name": "to",
          "type": "address"
        },
        {
          "internalType": "uint256",
          "name": "tokenId",
          "type": "uint256"
        },
        {
          "internalType": "bytes",
          "name": "data",
          "type": "bytes"
        }
      ],
      "name": "safeTransferFrom",
      "outputs": [],
      "stateMutability": "nonpayable",
      "type": "function"
    },
    {
      "inputs": [
        {
          "internalType": "address",
          "name": "operator",
          "type": "address"
        },
        {
          "internalType": "bool",
          "name": "approved",
          "type": "bool"
        }
      ],
      "name": "setApprovalForAll",
      "outputs": [],
      "stateMutability": "nonpayable",
      "type": "function"
    },
    {
      "inputs": [
        {
          "internalType": "bytes4",
          "name": "interfaceId",
          "type": "bytes4"
        }
      ],
      "name": "supportsInterface",
      "outputs": [
        {
          "internalType": "bool",
          "name": "",
          "type": "bool"
        }
      ],
      "stateMutability": "view",
      "type": "function"
    },
    {
      "inputs": [],
      "name": "symbol",
      "outputs": [
        {
          "internalType": "string",
          "name": "",
          "type": "string"
        }
      ],
      "stateMutability": "view",
      "type": "function"
    },
    {
      "inputs": [
        {
          "internalType": "uint256",
          "name": "tokenId",
          "type": "uint256"
        }
      ],
      "name": "tokenURI",
      "outputs": [
        {
          "internalType": "string",
          "name": "",
          "type": "string"
        }
      ],
      "stateMutability": "view",
      "type": "function"
    },
    {
      "inputs": [
        {
          "internalType": "address",
          "name": "from",
          "type": "address"
        },
        {
          "internalType": "address",
          "name": "to",
          "type": "address"
        },
        {
          "internalType": "uint256",
          "name": "tokenId",
          "type": "uint256"
        }
      ],
      "name": "transferFrom",
      "outputs": [],
      "stateMutability": "nonpayable",
      "type": "function"
    },
    {
      "inputs": [
        {
          "internalType": "address",
          "name": "newOwner",
          "type": "address"
        }
      ],
      "name": "transferOwnership",
      "outputs": [],
      "stateMutability": "nonpayable",
      "type": "function"
    }
  ],
  "bytecode": "0x60806040523480156200001157600080fd5b50604051620036c3380380620036c3833981810160405281019062000037919062000241565b6040518060400160405280601281526020017f56655675695665205469636b6574204e465400000000000000000000000000008152506040518060400160405280600481526020017f56565654000000000000000000000000000000000000000000000000000000008152508160009081620000b49190620004ed565b508060019081620000c69190620004ed565b505050620000e9620000dd6200010960201b60201c565b6200011160201b60201c565b620000fa816200011160201b60201c565b600160088190555050620005d4565b600033905090565b6000600760009054906101000a900473ffffffffffffffffffffffffffffffffffffffff16905081600760006101000a81548173ffffffffffffffffffffffffffffffffffffffff021916908373ffffffffffffffffffffffffffffffffffffffff1602179055508173ffffffffffffffffffffffffffffffffffffffff168173ffffffffffffffffffffffffffffffffffffffff167f8be0079c531659141344cd1fd0a4f28419497f9722a3daafe3b4186f6b6457e060405160405180910390a35050565b600080fd5b600073ffffffffffffffffffffffffffffffffffffffff82169050919050565b60006200020982620001dc565b9050919050565b6200021b81620001fc565b81146200022757600080fd5b50565b6000815190506200023b8162000210565b92915050565b6000602082840312156200025a5762000259620001d7565b5b60006200026a848285016200022a565b91505092915050565b600081519050919050565b7f4e487b7100000000000000000000000000000000000000000000000000000000600052604160045260246000fd5b7f4e487b7100000000000000000000000000000000000000000000000000000000600052602260045260246000fd5b60006002820490506001821680620002f557607f821691505b6020821081036200030b576200030a620002ad565b5b50919050565b60008190508160005260206000209050919050565b60006020601f8301049050919050565b600082821b905092915050565b600060088302620003757fffffffffffffffffffffffffffffffffffffffffffffffffffffffffffffffff8262000336565b62000381868362000336565b95508019841693508086168417925050509392505050565b6000819050919050565b6000819050919050565b6000620003ce620003c8620003c28462000399565b620003a3565b62000399565b9050919050565b6000819050919050565b620003ea83620003ad565b62000402620003f982620003d5565b84845462000343565b825550505050565b600090565b620004196200040a565b62000426818484620003df565b505050565b5b818110156200044e57620004426000826200040f565b6001810190506200042c565b5050565b601f8211156200049d57620004678162000311565b620004728462000326565b8101602085101562000482578190505b6200049a620004918562000326565b8301826200042b565b50505b505050565b600082821c905092915050565b6000620004c260001984600802620004a2565b1980831691505092915050565b6000620004dd8383620004af565b9150826002028217905092915050565b620004f88262000273565b67ffffffffffffffff8111156200051457620005136200027e565b5b620005208254620002dc565b6200052d82828562000452565b600060209050601f83116001811462000565576000841562000550578287015190505b6200055c8582620004cf565b865550620005cc565b601f198416620005758662000311565b60005b828110156200059f5784890151825560018201915060208501945060208101905062000578565b86831015620005bf5784890151620005bb601f891682620004af565b8355505b6001600288020188555050505b505050505050565b6130df80620005e46000396000f3fe608060405234801561001057600080fd5b50600436106101165760003560e01c806370a08231116100a2578063a22cb46511610071578063a22cb465146102e1578063b88d4fde146102fd578063c87b56dd14610319578063e985e9c514610349578063f2fde38b1461037957610116565b806370a082311461026b578063715018a61461029b5780638da5cb5b146102a557806395d89b41146102c357610116565b806323b872dd116100e957806323b872dd146101b557806342842e0e146101d15780635388842c146101ed578063561892361461021d5780636352211e1461023b57610116565b806301ffc9a71461011b57806306fdde031461014b578063081812fc14610169578063095ea7b314610199575b600080fd5b61013560048036038101906101309190611db9565b610395565b6040516101429190611e01565b60405180910390f35b6101536103f6565b6040516101609190611eac565b60405180910390f35b610183600480360381019061017e9190611f04565b610488565b6040516101909190611f72565b60405180910390f35b6101b360048036038101906101ae9190611fb9565b6104ce565b005b6101cf60048036038101906101ca9190611ff9565b6105e5565b005b6101eb60048036038101906101e69190611ff9565b610645565b005b61020760048036038101906102029190612181565b610665565b60405161021491906121ec565b60405180910390f35b610225610775565b60405161023291906121ec565b60405180910390f35b61025560048036038101906102509190611f04565b61079f565b6040516102629190611f72565b60405180910390f35b61028560048036038101906102809190612207565b610825565b60405161029291906121ec565b60405180910390f35b6102a36108dc565b005b6102ad6108f0565b6040516102ba9190611f72565b60405180910390f35b6102cb61091a565b6040516102d89190611eac565b60405180910390f35b6102fb60048036038101906102f69190612260565b6109ac565b005b61031760048036038101906103129190612341565b6109c2565b005b610333600480360381019061032e9190611f04565b610a24565b6040516103409190611eac565b60405180910390f35b610363600480360381019061035e91906123c4565b610b36565b6040516103709190611e01565b60405180910390f35b610393600480360381019061038e9190612207565b610bca565b005b6000634906490660e01b7bffffffffffffffffffffffffffffffffffffffffffffffffffffffff1916827bffffffffffffffffffffffffffffffffffffffffffffffffffffffff191614806103ef57506103ee82610c4d565b5b9050919050565b60606000805461040590612433565b80601f016020809104026020016040519081016040528092919081815260200182805461043190612433565b801561047e5780601f106104535761010080835404028352916020019161047e565b820191906000526020600020905b81548152906001019060200180831161046157829003601f168201915b5050505050905090565b600061049382610d2f565b6004600083815260200190815260200160002060009054906101000a900473ffffffffffffffffffffffffffffffffffffffff169050919050565b60006104d98261079f565b90508073ffffffffffffffffffffffffffffffffffffffff168373ffffffffffffffffffffffffffffffffffffffff1603610549576040517f08c379a0000000000000000000000000000000000000000000000000000000008152600401610540906124d6565b60405180910390fd5b8073ffffffffffffffffffffffffffffffffffffffff16610568610d7a565b73ffffffffffffffffffffffffffffffffffffffff161480610597575061059681610591610d7a565b610b36565b5b6105d6576040517f08c379a00000000000000000000000000000000000000000000000000000000081526004016105cd90612568565b60405180910390fd5b6105e08383610d82565b505050565b6105f66105f0610d7a565b82610e3b565b610635576040517f08c379a000000000000000000000000000000000000000000000000000000000815260040161062c906125fa565b60405180910390fd5b610640838383610ed0565b505050565b610660838383604051806020016040528060008152506109c2565b505050565b600061066f6111c9565b600073ffffffffffffffffffffffffffffffffffffffff168373ffffffffffffffffffffffffffffffffffffffff16036106de576040517f08c379a00000000000000000000000000000000000000000000000000000000081526004016106d590612666565b60405180910390fd5b60006008549050600860008154809291906106f8906126b5565b91905055506107078482611247565b60008351111561071c5761071b8184611265565b5b8373ffffffffffffffffffffffffffffffffffffffff16817f01fe50c1ea65ec45d727411cce4e6ac546a4cc83120dc5d887b7949347bfe728856040516107639190611eac565b60405180910390a38091505092915050565b600060016008540361078a576000905061079c565b600160085461079991906126fd565b90505b90565b6000806107ab83611309565b9050600073ffffffffffffffffffffffffffffffffffffffff168173ffffffffffffffffffffffffffffffffffffffff160361081c576040517f08c379a00000000000000000000000000000000000000000000000000000000081526004016108139061277d565b60405180910390fd5b80915050919050565b60008073ffffffffffffffffffffffffffffffffffffffff168273ffffffffffffffffffffffffffffffffffffffff1603610895576040517f08c379a000000000000000000000000000000000000000000000000000000000815260040161088c9061280f565b60405180910390fd5b600360008373ffffffffffffffffffffffffffffffffffffffff1673ffffffffffffffffffffffffffffffffffffffff168152602001908152602001600020549050919050565b6108e46111c9565b6108ee6000611346565b565b6000600760009054906101000a900473ffffffffffffffffffffffffffffffffffffffff16905090565b60606001805461092990612433565b80601f016020809104026020016040519081016040528092919081815260200182805461095590612433565b80156109a25780601f10610977576101008083540402835291602001916109a2565b820191906000526020600020905b81548152906001019060200180831161098557829003601f168201915b5050505050905090565b6109be6109b7610d7a565b838361140c565b5050565b6109d36109cd610d7a565b83610e3b565b610a12576040517f08c379a0000000000000000000000000000000000000000000000000000000008152600401610a09906125fa565b60405180910390fd5b610a1e84848484611578565b50505050565b6060610a2f82610d2f565b6000600660008481526020019081526020016000208054610a4f90612433565b80601f0160208091040260200160405190810160405280929190818152602001828054610a7b90612433565b8015610ac85780601f10610a9d57610100808354040283529160200191610ac8565b820191906000526020600020905b815481529060010190602001808311610aab57829003601f168201915b505050505090506000610ad96115d4565b90506000815103610aee578192505050610b31565b600082511115610b23578082604051602001610b0b92919061286b565b60405160208183030381529060405292505050610b31565b610b2c846115eb565b925050505b919050565b6000600560008473ffffffffffffffffffffffffffffffffffffffff1673ffffffffffffffffffffffffffffffffffffffff16815260200190815260200160002060008373ffffffffffffffffffffffffffffffffffffffff1673ffffffffffffffffffffffffffffffffffffffff16815260200190815260200160002060009054906101000a900460ff16905092915050565b610bd26111c9565b600073ffffffffffffffffffffffffffffffffffffffff168173ffffffffffffffffffffffffffffffffffffffff1603610c41576040517f08c379a0000000000000000000000000000000000000000000000000000000008152600401610c3890612901565b60405180910390fd5b610c4a81611346565b50565b60007f80ac58cd000000000000000000000000000000000000000000000000000000007bffffffffffffffffffffffffffffffffffffffffffffffffffffffff1916827bffffffffffffffffffffffffffffffffffffffffffffffffffffffff19161480610d1857507f5b5e139f000000000000000000000000000000000000000000000000000000007bffffffffffffffffffffffffffffffffffffffffffffffffffffffff1916827bffffffffffffffffffffffffffffffffffffffffffffffffffffffff1916145b80610d285750610d2782611653565b5b9050919050565b610d38816116bd565b610d77576040517f08c379a0000000000000000000000000000000000000000000000000000000008152600401610d6e9061277d565b60405180910390fd5b50565b600033905090565b816004600083815260200190815260200160002060006101000a81548173ffffffffffffffffffffffffffffffffffffffff021916908373ffffffffffffffffffffffffffffffffffffffff160217905550808273ffffffffffffffffffffffffffffffffffffffff16610df58361079f565b73ffffffffffffffffffffffffffffffffffffffff167f8c5be1e5ebec7d5bd14f71427d1e84f3dd0314c0f7b2291e5b200ac8c7c3b92560405160405180910390a45050565b600080610e478361079f565b90508073ffffffffffffffffffffffffffffffffffffffff168473ffffffffffffffffffffffffffffffffffffffff161480610e895750610e888185610b36565b5b80610ec757508373ffffffffffffffffffffffffffffffffffffffff16610eaf84610488565b73ffffffffffffffffffffffffffffffffffffffff16145b91505092915050565b8273ffffffffffffffffffffffffffffffffffffffff16610ef08261079f565b73ffffffffffffffffffffffffffffffffffffffff1614610f46576040517f08c379a0000000000000000000000000000000000000000000000000000000008152600401610f3d90612993565b60405180910390fd5b600073ffffffffffffffffffffffffffffffffffffffff168273ffffffffffffffffffffffffffffffffffffffff1603610fb5576040517f08c379a0000000000000000000000000000000000000000000000000000000008152600401610fac90612a25565b60405180910390fd5b610fc283838360016116fe565b8273ffffffffffffffffffffffffffffffffffffffff16610fe28261079f565b73ffffffffffffffffffffffffffffffffffffffff1614611038576040517f08c379a000000000000000000000000000000000000000000000000000000000815260040161102f90612993565b60405180910390fd5b6004600082815260200190815260200160002060006101000a81549073ffffffffffffffffffffffffffffffffffffffff02191690556001600360008573ffffffffffffffffffffffffffffffffffffffff1673ffffffffffffffffffffffffffffffffffffffff168152602001908152602001600020600082825403925050819055506001600360008473ffffffffffffffffffffffffffffffffffffffff1673ffffffffffffffffffffffffffffffffffffffff16815260200190815260200160002060008282540192505081905550816002600083815260200190815260200160002060006101000a81548173ffffffffffffffffffffffffffffffffffffffff021916908373ffffffffffffffffffffffffffffffffffffffff160217905550808273ffffffffffffffffffffffffffffffffffffffff168473ffffffffffffffffffffffffffffffffffffffff167fddf252ad1be2c89b69c2b068fc378daa952ba7f163c4a11628f55a4df523b3ef60405160405180910390a46111c48383836001611704565b505050565b6111d1610d7a565b73ffffffffffffffffffffffffffffffffffffffff166111ef6108f0565b73ffffffffffffffffffffffffffffffffffffffff1614611245576040517f08c379a000000000000000000000000000000000000000000000000000000000815260040161123c90612a91565b60405180910390fd5b565b61126182826040518060200160405280600081525061170a565b5050565b61126e826116bd565b6112ad576040517f08c379a00000000000000000000000000000000000000000000000000000000081526004016112a490612b23565b60405180910390fd5b806006600084815260200190815260200160002090816112cd9190612cef565b507ff8e1a15aba9398e019f0b49df1a4fde98ee17ae345cb5f6b5e2c27f5033e8ce7826040516112fd91906121ec565b60405180910390a15050565b60006002600083815260200190815260200160002060009054906101000a900473ffffffffffffffffffffffffffffffffffffffff169050919050565b6000600760009054906101000a900473ffffffffffffffffffffffffffffffffffffffff16905081600760006101000a81548173ffffffffffffffffffffffffffffffffffffffff021916908373ffffffffffffffffffffffffffffffffffffffff1602179055508173ffffffffffffffffffffffffffffffffffffffff168173ffffffffffffffffffffffffffffffffffffffff167f8be0079c531659141344cd1fd0a4f28419497f9722a3daafe3b4186f6b6457e060405160405180910390a35050565b8173ffffffffffffffffffffffffffffffffffffffff168373ffffffffffffffffffffffffffffffffffffffff160361147a576040517f08c379a000000000000000000000000000000000000000000000000000000000815260040161147190612e0d565b60405180910390fd5b80600560008573ffffffffffffffffffffffffffffffffffffffff1673ffffffffffffffffffffffffffffffffffffffff16815260200190815260200160002060008473ffffffffffffffffffffffffffffffffffffffff1673ffffffffffffffffffffffffffffffffffffffff16815260200190815260200160002060006101000a81548160ff0219169083151502179055508173ffffffffffffffffffffffffffffffffffffffff168373ffffffffffffffffffffffffffffffffffffffff167f17307eab39ab6107e8899845ad3d59bd9653f200f220920489ca2b5937696c318360405161156b9190611e01565b60405180910390a3505050565b611583848484610ed0565b61158f84848484611765565b6115ce576040517f08c379a00000000000000000000000000000000000000000000000000000000081526004016115c590612e9f565b60405180910390fd5b50505050565b606060405180602001604052806000815250905090565b60606115f682610d2f565b60006116006115d4565b90506000815111611620576040518060200160405280600081525061164b565b8061162a846118ec565b60405160200161163b92919061286b565b6040516020818303038152906040525b915050919050565b60007f01ffc9a7000000000000000000000000000000000000000000000000000000007bffffffffffffffffffffffffffffffffffffffffffffffffffffffff1916827bffffffffffffffffffffffffffffffffffffffffffffffffffffffff1916149050919050565b60008073ffffffffffffffffffffffffffffffffffffffff166116df83611309565b73ffffffffffffffffffffffffffffffffffffffff1614159050919050565b50505050565b50505050565b61171483836119ba565b6117216000848484611765565b611760576040517f08c379a000000000000000000000000000000000000000000000000000000000815260040161175790612e9f565b60405180910390fd5b505050565b60006117868473ffffffffffffffffffffffffffffffffffffffff16611bd7565b156118df578373ffffffffffffffffffffffffffffffffffffffff1663150b7a026117af610d7a565b8786866040518563ffffffff1660e01b81526004016117d19493929190612f14565b6020604051808303816000875af192505050801561180d57506040513d601f19601f8201168201806040525081019061180a9190612f75565b60015b61188f573d806000811461183d576040519150601f19603f3d011682016040523d82523d6000602084013e611842565b606091505b506000815103611887576040517f08c379a000000000000000000000000000000000000000000000000000000000815260040161187e90612e9f565b60405180910390fd5b805181602001fd5b63150b7a0260e01b7bffffffffffffffffffffffffffffffffffffffffffffffffffffffff1916817bffffffffffffffffffffffffffffffffffffffffffffffffffffffff1916149150506118e4565b600190505b949350505050565b6060600060016118fb84611bfa565b01905060008167ffffffffffffffff81111561191a57611919612056565b5b6040519080825280601f01601f19166020018201604052801561194c5781602001600182028036833780820191505090505b509050600082602001820190505b6001156119af578080600190039150507f3031323334353637383961626364656600000000000000000000000000000000600a86061a8153600a85816119a3576119a2612fa2565b5b0494506000850361195a575b819350505050919050565b600073ffffffffffffffffffffffffffffffffffffffff168273ffffffffffffffffffffffffffffffffffffffff1603611a29576040517f08c379a0000000000000000000000000000000000000000000000000000000008152600401611a209061301d565b60405180910390fd5b611a32816116bd565b15611a72576040517f08c379a0000000000000000000000000000000000000000000000000000000008152600401611a6990613089565b60405180910390fd5b611a806000838360016116fe565b611a89816116bd565b15611ac9576040517f08c379a0000000000000000000000000000000000000000000000000000000008152600401611ac090613089565b60405180910390fd5b6001600360008473ffffffffffffffffffffffffffffffffffffffff1673ffffffffffffffffffffffffffffffffffffffff16815260200190815260200160002060008282540192505081905550816002600083815260200190815260200160002060006101000a81548173ffffffffffffffffffffffffffffffffffffffff021916908373ffffffffffffffffffffffffffffffffffffffff160217905550808273ffffffffffffffffffffffffffffffffffffffff16600073ffffffffffffffffffffffffffffffffffffffff167fddf252ad1be2c89b69c2b068fc378daa952ba7f163c4a11628f55a4df523b3ef60405160405180910390a4611bd3600083836001611704565b5050565b6000808273ffffffffffffffffffffffffffffffffffffffff163b119050919050565b600080600090507a184f03e93ff9f4daa797ed6e38ed64bf6a1f0100000000000000008310611c58577a184f03e93ff9f4daa797ed6e38ed64bf6a1f0100000000000000008381611c4e57611c4d612fa2565b5b0492506040810190505b6d04ee2d6d415b85acef81000000008310611c95576d04ee2d6d415b85acef81000000008381611c8b57611c8a612fa2565b5b0492506020810190505b662386f26fc100008310611cc457662386f26fc100008381611cba57611cb9612fa2565b5b0492506010810190505b6305f5e1008310611ced576305f5e1008381611ce357611ce2612fa2565b5b0492506008810190505b6127108310611d12576127108381611d0857611d07612fa2565b5b0492506004810190505b60648310611d355760648381611d2b57611d2a612fa2565b5b0492506002810190505b600a8310611d44576001810190505b80915050919050565b6000604051905090565b600080fd5b600080fd5b60007fffffffff0000000000000000000000000000000000000000000000000000000082169050919050565b611d9681611d61565b8114611da157600080fd5b50565b600081359050611db381611d8d565b92915050565b600060208284031215611dcf57611dce611d57565b5b6000611ddd84828501611da4565b91505092915050565b60008115159050919050565b611dfb81611de6565b82525050565b6000602082019050611e166000830184611df2565b92915050565b600081519050919050565b600082825260208201905092915050565b60005b83811015611e56578082015181840152602081019050611e3b565b60008484015250505050565b6000601f19601f8301169050919050565b6000611e7e82611e1c565b611e888185611e27565b9350611e98818560208601611e38565b611ea181611e62565b840191505092915050565b60006020820190508181036000830152611ec68184611e73565b905092915050565b6000819050919050565b611ee181611ece565b8114611eec57600080fd5b50565b600081359050611efe81611ed8565b92915050565b600060208284031215611f1a57611f19611d57565b5b6000611f2884828501611eef565b91505092915050565b600073ffffffffffffffffffffffffffffffffffffffff82169050919050565b6000611f5c82611f31565b9050919050565b611f6c81611f51565b82525050565b6000602082019050611f876000830184611f63565b92915050565b611f9681611f51565b8114611fa157600080fd5b50565b600081359050611fb381611f8d565b92915050565b60008060408385031215611fd057611fcf611d57565b5b6000611fde85828601611fa4565b9250506020611fef85828601611eef565b9150509250929050565b60008060006060848603121561201257612011611d57565b5b600061202086828701611fa4565b935050602061203186828701611fa4565b925050604061204286828701611eef565b9150509250925092565b600080fd5b600080fd5b7f4e487b7100000000000000000000000000000000000000000000000000000000600052604160045260246000fd5b61208e82611e62565b810181811067ffffffffffffffff821117156120ad576120ac612056565b5b80604052505050565b60006120c0611d4d565b90506120cc8282612085565b919050565b600067ffffffffffffffff8211156120ec576120eb612056565b5b6120f582611e62565b9050602081019050919050565b82818337600083830152505050565b600061212461211f846120d1565b6120b6565b9050828152602081018484840111156121405761213f612051565b5b61214b848285612102565b509392505050565b600082601f8301126121685761216761204c565b5b8135612178848260208601612111565b91505092915050565b6000806040838503121561219857612197611d57565b5b60006121a685828601611fa4565b925050602083013567ffffffffffffffff8111156121c7576121c6611d5c565b5b6121d385828601612153565b9150509250929050565b6121e681611ece565b82525050565b600060208201905061220160008301846121dd565b92915050565b60006020828403121561221d5761221c611d57565b5b600061222b84828501611fa4565b91505092915050565b61223d81611de6565b811461224857600080fd5b50565b60008135905061225a81612234565b92915050565b6000806040838503121561227757612276611d57565b5b600061228585828601611fa4565b92505060206122968582860161224b565b9150509250929050565b600067ffffffffffffffff8211156122bb576122ba612056565b5b6122c482611e62565b9050602081019050919050565b60006122e46122df846122a0565b6120b6565b905082815260208101848484011115612300576122ff612051565b5b61230b848285612102565b509392505050565b600082601f8301126123285761232761204c565b5b81356123388482602086016122d1565b91505092915050565b6000806000806080858703121561235b5761235a611d57565b5b600061236987828801611fa4565b945050602061237a87828801611fa4565b935050604061238b87828801611eef565b925050606085013567ffffffffffffffff8111156123ac576123ab611d5c565b5b6123b887828801612313565b91505092959194509250565b600080604083850312156123db576123da611d57565b5b60006123e985828601611fa4565b92505060206123fa85828601611fa4565b9150509250929050565b7f4e487b7100000000000000000000000000000000000000000000000000000000600052602260045260246000fd5b6000600282049050600182168061244b57607f821691505b60208210810361245e5761245d612404565b5b50919050565b7f4552433732313a20617070726f76616c20746f2063757272656e74206f776e6560008201527f7200000000000000000000000000000000000000000000000000000000000000602082015250565b60006124c0602183611e27565b91506124cb82612464565b604082019050919050565b600060208201905081810360008301526124ef816124b3565b9050919050565b7f4552433732313a20617070726f76652063616c6c6572206973206e6f7420746f60008201527f6b656e206f776e6572206f7220617070726f76656420666f7220616c6c000000602082015250565b6000612552603d83611e27565b915061255d826124f6565b604082019050919050565b6000602082019050818103600083015261258181612545565b9050919050565b7f4552433732313a2063616c6c6572206973206e6f7420746f6b656e206f776e6560008201527f72206f7220617070726f76656400000000000000000000000000000000000000602082015250565b60006125e4602d83611e27565b91506125ef82612588565b604082019050919050565b60006020820190508181036000830152612613816125d7565b9050919050565b7f496e76616c696420726563697069656e74000000000000000000000000000000600082015250565b6000612650601183611e27565b915061265b8261261a565b602082019050919050565b6000602082019050818103600083015261267f81612643565b9050919050565b7f4e487b7100000000000000000000000000000000000000000000000000000000600052601160045260246000fd5b60006126c082611ece565b91507fffffffffffffffffffffffffffffffffffffffffffffffffffffffffffffffff82036126f2576126f1612686565b5b600182019050919050565b600061270882611ece565b915061271383611ece565b925082820390508181111561272b5761272a612686565b5b92915050565b7f4552433732313a20696e76616c696420746f6b656e2049440000000000000000600082015250565b6000612767601883611e27565b915061277282612731565b602082019050919050565b600060208201905081810360008301526127968161275a565b9050919050565b7f4552433732313a2061646472657373207a65726f206973206e6f74206120766160008201527f6c6964206f776e65720000000000000000000000000000000000000000000000602082015250565b60006127f9602983611e27565b91506128048261279d565b604082019050919050565b60006020820190508181036000830152612828816127ec565b9050919050565b600081905092915050565b600061284582611e1c565b61284f818561282f565b935061285f818560208601611e38565b80840191505092915050565b6000612877828561283a565b9150612883828461283a565b91508190509392505050565b7f4f776e61626c653a206e6577206f776e657220697320746865207a65726f206160008201527f6464726573730000000000000000000000000000000000000000000000000000602082015250565b60006128eb602683611e27565b91506128f68261288f565b604082019050919050565b6000602082019050818103600083015261291a816128de565b9050919050565b7f4552433732313a207472616e736665722066726f6d20696e636f72726563742060008201527f6f776e6572000000000000000000000000000000000000000000000000000000602082015250565b600061297d602583611e27565b915061298882612921565b604082019050919050565b600060208201905081810360008301526129ac81612970565b9050919050565b7f4552433732313a207472616e7366657220746f20746865207a65726f2061646460008201527f7265737300000000000000000000000000000000000000000000000000000000602082015250565b6000612a0f602483611e27565b9150612a1a826129b3565b604082019050919050565b60006020820190508181036000830152612a3e81612a02565b9050919050565b7f4f776e61626c653a2063616c6c6572206973206e6f7420746865206f776e6572600082015250565b6000612a7b602083611e27565b9150612a8682612a45565b602082019050919050565b60006020820190508181036000830152612aaa81612a6e565b9050919050565b7f45524337323155524953746f726167653a2055524920736574206f66206e6f6e60008201527f6578697374656e7420746f6b656e000000000000000000000000000000000000602082015250565b6000612b0d602e83611e27565b9150612b1882612ab1565b604082019050919050565b60006020820190508181036000830152612b3c81612b00565b9050919050565b60008190508160005260206000209050919050565b60006020601f8301049050919050565b600082821b905092915050565b600060088302612ba57fffffffffffffffffffffffffffffffffffffffffffffffffffffffffffffffff82612b68565b612baf8683612b68565b95508019841693508086168417925050509392505050565b6000819050919050565b6000612bec612be7612be284611ece565b612bc7565b611ece565b9050919050565b6000819050919050565b612c0683612bd1565b612c1a612c1282612bf3565b848454612b75565b825550505050565b600090565b612c2f612c22565b612c3a818484612bfd565b505050565b5b81811015612c5e57612c53600082612c27565b600181019050612c40565b5050565b601f821115612ca357612c7481612b43565b612c7d84612b58565b81016020851015612c8c578190505b612ca0612c9885612b58565b830182612c3f565b50505b505050565b600082821c905092915050565b6000612cc660001984600802612ca8565b1980831691505092915050565b6000612cdf8383612cb5565b9150826002028217905092915050565b612cf882611e1c565b67ffffffffffffffff811115612d1157612d10612056565b5b612d1b8254612433565b612d26828285612c62565b600060209050601f831160018114612d595760008415612d47578287015190505b612d518582612cd3565b865550612db9565b601f198416612d6786612b43565b60005b82811015612d8f57848901518255600182019150602085019450602081019050612d6a565b86831015612dac5784890151612da8601f891682612cb5565b8355505b6001600288020188555050505b505050505050565b7f4552433732313a20617070726f766520746f2063616c6c657200000000000000600082015250565b6000612df7601983611e27565b9150612e0282612dc1565b602082019050919050565b60006020820190508181036000830152612e2681612dea565b9050919050565b7f4552433732313a207472616e7366657220746f206e6f6e20455243373231526560008201527f63656976657220696d706c656d656e7465720000000000000000000000000000602082015250565b6000612e89603283611e27565b9150612e9482612e2d565b604082019050919050565b60006020820190508181036000830152612eb881612e7c565b9050919050565b600081519050919050565b600082825260208201905092915050565b6000612ee682612ebf565b612ef08185612eca565b9350612f00818560208601611e38565b612f0981611e62565b840191505092915050565b6000608082019050612f296000830187611f63565b612f366020830186611f63565b612f4360408301856121dd565b8181036060830152612f558184612edb565b905095945050505050565b600081519050612f6f81611d8d565b92915050565b600060208284031215612f8b57612f8a611d57565b5b6000612f9984828501612f60565b91505092915050565b7f4e487b7100000000000000000000000000000000000000000000000000000000600052601260045260246000fd5b7f4552433732313a206d696e7420746f20746865207a65726f2061646472657373600082015250565b6000613007602083611e27565b915061301282612fd1565b602082019050919050565b6000602082019050818103600083015261303681612ffa565b9050919050565b7f4552433732313a20746f6b656e20616c7265616479206d696e74656400000000600082015250565b6000613073601c83611e27565b915061307e8261303d565b602082019050919050565b600060208201905081810360008301526130a281613066565b905091905056fea264697066735822122076181a358cc3ff4bf9b705190cae63ee7df82e8c0f5201f748b9a96558b930f364736f6c63430008140033",
  "linkReferences": {},
  "deployedLinkReferences": {}
}